{
    "contractName": "ListingProducer",
    "abi": [
        {
            "anonymous": false,
            "inputs": [
                {
                    "indexed": true,
                    "internalType": "address",
                    "name": "listingAddress",
                    "type": "address"
                }
            ],
            "name": "ListProperty",
            "type": "event"
        },
        {
            "inputs": [
                {
                    "internalType": "uint256",
                    "name": "",
                    "type": "uint256"
                }
            ],
            "name": "ListingAddresses",
            "outputs": [
                {
                    "internalType": "address",
                    "name": "",
                    "type": "address"
                }
            ],
            "stateMutability": "view",
            "type": "function"
        },
        {
            "inputs": [],
            "name": "getListingAddresses",
            "outputs": [
                {
                    "internalType": "address[]",
                    "name": "",
                    "type": "address[]"
                }
            ],
            "stateMutability": "view",
            "type": "function"
        },
        {
            "inputs": [
                {
                    "internalType": "string",
                    "name": "name",
                    "type": "string"
                },
                {
                    "internalType": "string",
                    "name": "symbol",
                    "type": "string"
                },
                {
                    "internalType": "uint256",
                    "name": "targetAmount",
                    "type": "uint256"
                }
            ],
            "name": "listCampaign",
            "outputs": [],
            "stateMutability": "nonpayable",
            "type": "function"
        }
    ],
    "bytecode": "608060405234801561001057600080fd5b5061154d806100206000396000f3fe608060405234801561001057600080fd5b50600436106100415760003560e01c806350c2e2a714610046578063cc11b7261461005b578063d11afc511461008b575b600080fd5b610059610054366004610240565b6100a0565b005b61006e6100693660046102b4565b61015e565b6040516001600160a01b0390911681526020015b60405180910390f35b610093610188565b60405161008291906102cd565b60008585858585336040516100b4906101ea565b6100c396959493929190610343565b604051809103906000f0801580156100df573d6000803e3d6000fd5b50600080546001810182558180527f290decd9548b62a8d60345a988386fc84ba6bc95484008f6362f93160ef3e5630180546001600160a01b0319166001600160a01b038416908117909155604051929350917f21cf8a883ff9d7ae3a0398adcace127e25372ee7574f7e46bea97f3b36deaae99190a2505050505050565b6000818154811061016e57600080fd5b6000918252602090912001546001600160a01b0316905081565b606060008054806020026020016040519081016040528092919081815260200182805480156101e057602002820191906000526020600020905b81546001600160a01b031681526001909101906020018083116101c2575b5050505050905090565b6111898061038f83390190565b60008083601f84011261020957600080fd5b50813567ffffffffffffffff81111561022157600080fd5b60208301915083602082850101111561023957600080fd5b9250929050565b60008060008060006060868803121561025857600080fd5b853567ffffffffffffffff8082111561027057600080fd5b61027c89838a016101f7565b9097509550602088013591508082111561029557600080fd5b506102a2888289016101f7565b96999598509660400135949350505050565b6000602082840312156102c657600080fd5b5035919050565b6020808252825182820181905260009190848201906040850190845b8181101561030e5783516001600160a01b0316835292840192918401916001016102e9565b50909695505050505050565b81835281816020850137506000828201602090810191909152601f909101601f19169091010190565b60808152600061035760808301888a61031a565b828103602084015261036a81878961031a565b604084019590955250506001600160a01b039190911660609091015294935050505056fe608060405260006002553480156200001657600080fd5b506040516200118938038062001189833981016040819052620000399162000155565b600062000047858262000279565b50600162000056848262000279565b50600680546001600160a01b0319166001600160a01b0392909216919091179055600855505042600755600b805460ff1916905562000345565b634e487b7160e01b600052604160045260246000fd5b600082601f830112620000b857600080fd5b81516001600160401b0380821115620000d557620000d562000090565b604051601f8301601f19908116603f0116810190828211818310171562000100576200010062000090565b816040528381526020925086838588010111156200011d57600080fd5b600091505b8382101562000141578582018301518183018401529082019062000122565b600093810190920192909252949350505050565b600080600080608085870312156200016c57600080fd5b84516001600160401b03808211156200018457600080fd5b6200019288838901620000a6565b95506020870151915080821115620001a957600080fd5b50620001b887828801620000a6565b60408701516060880151919550935090506001600160a01b0381168114620001df57600080fd5b939692955090935050565b600181811c90821680620001ff57607f821691505b6020821081036200022057634e487b7160e01b600052602260045260246000fd5b50919050565b601f8211156200027457600081815260208120601f850160051c810160208610156200024f5750805b601f850160051c820191505b8181101562000270578281556001016200025b565b5050505b505050565b81516001600160401b0381111562000295576200029562000090565b620002ad81620002a68454620001ea565b8462000226565b602080601f831160018114620002e55760008415620002cc5750858301515b600019600386901b1c1916600185901b17855562000270565b600085815260208120601f198616915b828110156200031657888601518255948401946001909101908401620002f5565b5085821015620003355787850151600019600388901b60f8161c191681555b5050505050600190811b01905550565b610e3480620003556000396000f3fe6080604052600436106101095760003560e01c80633feb5f2b11610095578063a9059cbb11610064578063a9059cbb146102de578063bd39a2a8146102fe578063cf73a1bc14610314578063dd62ed3e14610334578063e8b5e51f1461034f57600080fd5b80633feb5f2b1461024557806370a082311461027d578063953b8fb8146102b357806395d89b41146102c957600080fd5b8063200d2ed2116100dc578063200d2ed2146101b157806323b872dd146101dd5780632abc6828146101f85780632e1a7d4d1461020f578063313ce5671461022f57600080fd5b806306fdde031461010e578063095ea7b3146101395780630c611f241461016457806318160ddd1461018d575b600080fd5b34801561011a57600080fd5b50610123610357565b6040516101309190610bc9565b60405180910390f35b34801561014557600080fd5b50610154610109366004610bff565b6040519015158152602001610130565b34801561017057600080fd5b506101796103e5565b604051610130989796959493929190610c29565b34801561019957600080fd5b506101a360035481565b604051908152602001610130565b3480156101bd57600080fd5b50600b546101cb9060ff1681565b60405160ff9091168152602001610130565b3480156101e957600080fd5b50610154610109366004610c90565b34801561020457600080fd5b5061020d610557565b005b34801561021b57600080fd5b5061020d61022a366004610ccc565b610630565b34801561023b57600080fd5b506101a360025481565b34801561025157600080fd5b50610265610260366004610ccc565b6106ed565b6040516001600160a01b039091168152602001610130565b34801561028957600080fd5b506101a3610298366004610ce5565b6001600160a01b031660009081526004602052604090205490565b3480156102bf57600080fd5b506101a360085481565b3480156102d557600080fd5b50610123610717565b3480156102ea57600080fd5b506101546102f9366004610bff565b610724565b34801561030a57600080fd5b506101a360075481565b34801561032057600080fd5b50600654610265906001600160a01b031681565b34801561034057600080fd5b506101a3610109366004610d00565b61020d61073b565b6000805461036490610d33565b80601f016020809104026020016040519081016040528092919081815260200182805461039090610d33565b80156103dd5780601f106103b2576101008083540402835291602001916103dd565b820191906000526020600020905b8154815290600101906020018083116103c057829003601f168201915b505050505081565b60608060008060008060008060006001600354600754600660009054906101000a90046001600160a01b031647600854600b60009054906101000a900460ff1687805461043190610d33565b80601f016020809104026020016040519081016040528092919081815260200182805461045d90610d33565b80156104aa5780601f1061047f576101008083540402835291602001916104aa565b820191906000526020600020905b81548152906001019060200180831161048d57829003601f168201915b505050505097508680546104bd90610d33565b80601f01602080910402602001604051908101604052809291908181526020018280546104e990610d33565b80156105365780601f1061050b57610100808354040283529160200191610536565b820191906000526020600020905b81548152906001019060200180831161051957829003601f168201915b50505050509650975097509750975097509750975097509091929394959697565b6006546001600160a01b0316331461058a5760405162461bcd60e51b815260040161058190610d6d565b60405180910390fd5b600b5460ff16156105dd5760405162461bcd60e51b815260206004820152601e60248201527f50726f70657274792069732063757272656e746c7920756e6c697374656400006044820152606401610581565b42600754624f1a006105ef9190610da9565b101580156105ff57506008544710155b1561061b57600b805460ff19166001179055610619610819565b565b600b805460ff191660021790556106196108b9565b6006546001600160a01b0316331461065a5760405162461bcd60e51b815260040161058190610d6d565b600b5460ff166001146106af5760405162461bcd60e51b815260206004820152601860248201527f50726f7065727479206973207374696c6c206c697374656400000000000000006044820152606401610581565b6006546040516001600160a01b039091169082156108fc029083906000818181858888f193505050501580156106e9573d6000803e3d6000fd5b5050565b600a81815481106106fd57600080fd5b6000918252602090912001546001600160a01b0316905081565b6001805461036490610d33565b600061073133848461096b565b5060015b92915050565b600b5460ff161561079a5760405162461bcd60e51b815260206004820152602360248201527f50726f7065727479206973206e6f742063757272656e746c792066696e616e63604482015262696e6760e81b6064820152608401610581565b3360009081526009602052604081205490036107f357600a80546001810182556000919091527fc65a7bb8d6351c1cf70c95a316cc6a92839c986682d98bc35f958f4883f9d2a80180546001600160a01b031916331790555b3360009081526009602052604081208054349290610812908490610da9565b9091555050565b6006546001600160a01b031633146108435760405162461bcd60e51b815260040161058190610d6d565b61084c47610ae3565b60005b600a548110156108b6576000600a828154811061086e5761086e610dbc565b60009182526020808320909101546001600160a01b031680835260099091526040909120549091506108a3903090839061096b565b50806108ae81610dd2565b91505061084f565b50565b6006546001600160a01b031633146108e35760405162461bcd60e51b815260040161058190610d6d565b60005b600a548110156108b6576000600a828154811061090557610905610dbc565b60009182526020808320909101546001600160a01b031680835260099091526040808320549051919350839281156108fc029290818181858888f19350505050158015610956573d6000803e3d6000fd5b5050808061096390610dd2565b9150506108e6565b6001600160a01b0383166000908152600460205260409020548111156109ca5760405162461bcd60e51b8152602060048201526014602482015273696e73756666696369656e742062616c616e636560601b6044820152606401610581565b6001600160a01b0382166000908152600460205260408120549003610a3557600580546001810182556000919091527f036b6384b5eca791c62761152d0c79bb0604c104a5fb6f4eb0703f3154bb3db00180546001600160a01b0319166001600160a01b0384161790555b6001600160a01b03831660009081526004602052604081208054839290610a5d908490610deb565b90915550506001600160a01b03821660009081526004602052604081208054839290610a8a908490610da9565b92505081905550816001600160a01b0316836001600160a01b03167fddf252ad1be2c89b69c2b068fc378daa952ba7f163c4a11628f55a4df523b3ef83604051610ad691815260200190565b60405180910390a3505050565b6006546001600160a01b03163314610b0d5760405162461bcd60e51b815260040161058190610d6d565b8060036000828254610b1f9190610da9565b90915550503060009081526004602052604081208054839290610b43908490610da9565b909155505060405181815230906000907fddf252ad1be2c89b69c2b068fc378daa952ba7f163c4a11628f55a4df523b3ef9060200160405180910390a350565b6000815180845260005b81811015610ba957602081850181015186830182015201610b8d565b506000602082860101526020601f19601f83011685010191505092915050565b602081526000610bdc6020830184610b83565b9392505050565b80356001600160a01b0381168114610bfa57600080fd5b919050565b60008060408385031215610c1257600080fd5b610c1b83610be3565b946020939093013593505050565b6000610100808352610c3d8184018c610b83565b90508281036020840152610c51818b610b83565b6040840199909952505060608101959095526001600160a01b0393909316608085015260a084019190915260c083015260ff1660e09091015292915050565b600080600060608486031215610ca557600080fd5b610cae84610be3565b9250610cbc60208501610be3565b9150604084013590509250925092565b600060208284031215610cde57600080fd5b5035919050565b600060208284031215610cf757600080fd5b610bdc82610be3565b60008060408385031215610d1357600080fd5b610d1c83610be3565b9150610d2a60208401610be3565b90509250929050565b600181811c90821680610d4757607f821691505b602082108103610d6757634e487b7160e01b600052602260045260246000fd5b50919050565b6020808252600c908201526b15539055551213d49256915160a21b604082015260600190565b634e487b7160e01b600052601160045260246000fd5b8082018082111561073557610735610d93565b634e487b7160e01b600052603260045260246000fd5b600060018201610de457610de4610d93565b5060010190565b8181038181111561073557610735610d9356fea2646970667358221220e60e42ac56b400fa34a0b7653775eb67db5076f3414d97686dacfe186c14c74864736f6c63430008130033a26469706673582212203a9d338d82dbec625468a2b647e27d98a1d46040201d915be1195cf5276ad8d664736f6c63430008130033",
    "sourcePath": "/Users/danielwang/Downloads/NFProperty-master/src/components/ethereum/ListingProducer.sol",
    "compiler": {
        "name": "solc",
        "version": "0.8.19+commit.7dd6d404"
    },
    "functionHashes": {
        "ListingAddresses(uint256)": "cc11b726",
        "getListingAddresses()": "d11afc51",
        "listCampaign(string,string,uint256)": "50c2e2a7"
    },
    "gasEstimates": {
        "creation": {
            "codeDepositCost": "1090600",
            "executionCost": "1134",
            "totalCost": "1091734"
        },
        "external": {
            "ListingAddresses(uint256)": "4603",
            "getListingAddresses()": "infinite",
            "listCampaign(string,string,uint256)": "infinite"
        }
    }
}